:100000000C9434000C9449000C9449000C948E011B
:100010000C9449000C9449000C9449000C9449003C
:100020000C9449000C9449000C9449000C9449002C
:100030000C9449000C9449000C9449000C9449001C
:100040000C9449000C9449000C9449000C9449000C
:100050000C9449000C9449000C9449000C944900FC
:100060000C9449000C94490011241FBECFEFD8E036
:10007000DEBFCDBF12E0A0E0B1E0E0E4F6E102C0F7
:1000800005900D92A830B107D9F70E942D040C9469
:100090001E0B0C940000DF93CF93CDB7DEB7A7E221
:1000A000B0E0E7E2F0E0808180618C93A7E2B0E00D
:1000B000E7E2F0E0808180628C93AAE2B0E0EAE2BD
:1000C000F0E0808180648C93AAE2B0E0EAE2F0E0A4
:1000D000808180688C93A4E2B0E0E4E2F0E080816B
:1000E0008B7F8C93A5E2B0E0E5E2F0E08081816057
:1000F0008C93A5E2B0E0E5E2F0E0808182608C9331
:10010000A8E6B0E0E8E6F0E0808181608C93ABE6A1
:10011000B0E0EBE6F0E0808183608C93E4E4F0E013
:100120001082E5E4F0E086E080837894CF91DF915F
:100130000895DF93CF93CDB7DEB76E970FB6F894DF
:10014000DEBF0FBECDBF9C8F8B8F7E8F6D8F1A8EC3
:10015000198ED3C0ABE2B0E0EBE2F0E0908180E436
:1001600089278C938B8D9C8DAA2797FDA095BA2FFC
:10017000BC01CD010E944008DC01CB018D8B9E8B20
:10018000AF8BB88F6D897E898F89988D2BEA3AEA7B
:100190004AEA50E40E940A06DC01CB01898B9A8B63
:1001A000AB8BBC8B69897A898B899C8920E030E094
:1001B00040E85FE30E94100888231CF481E0888BEC
:1001C00091C069897A898B899C8920E030E04FE76A
:1001D00053E40E94B00718160CF07BC06D897E892D
:1001E0008F89988D20E030E04AE754E40E940407AC
:1001F000DC01CB018C879D87AE87BF876C857D85B1
:100200008E859F8520E030E04AE755E40E940A068B
:10021000DC01CB0188879987AA87BB8768857985A8
:100220008A859B8520E030E040E85FE30E9410086B
:1002300088232CF481E090E09F838E833FC0688503
:1002400079858A859B8520E03FEF4FE757E40E9440
:10025000B00718164CF56C857D858E859F8520E04E
:1002600030E040E251E40E940A06DC01CB01BC010F
:10027000CD010E943404DC01CB019F838E830FC02B
:1002800080E991E09D838C838C819D810197F1F7BA
:100290009D838C838E819F8101979F838E838E8126
:1002A0009F81009769F724C0688579858A859B8539
:1002B0000E943404DC01CB019F838E838E819F8159
:1002C0009B838A838A819B810197F1F79B838A8331
:1002D0000FC069897A898B899C890E943404DC016A
:1002E000CB01888B8889898389818A95F1F78983F5
:1002F000898D9A8D01969A8F898F298D3A8D8D8D52
:100300009E8D281739070CF425CF6E960FB6F894FA
:10031000DEBF0FBECDBFCF91DF9108951F920F9228
:100320000FB60F9211242F933F934F935F936F93C8
:100330007F938F939F93AF93BF93EF93FF93DF933D
:10034000CF93CDB7DEB7AA97DEBFCDBF80E090E0F8
:10035000A8ECB1E48FA398A7A9A7BAA76FA178A525
:1003600089A59AA520E030E04AE755E40E940A06F4
:10037000DC01CB018BA39CA3ADA3BEA36BA17CA18D
:100380008DA19EA120E030E040E85FE30E941008CC
:1003900088232CF481E090E09AA389A33FC06BA14D
:1003A0007CA18DA19EA120E03FEF4FE757E40E9482
:1003B000B00718164CF56FA178A589A59AA520E07D
:1003C00030E040E251E40E940A06DC01CB01BC01AE
:1003D000CD010E943404DC01CB019AA389A30FC094
:1003E00080E991E098A38F8F8F8D98A10197F1F705
:1003F00098A38F8F89A19AA101979AA389A389A114
:100400009AA1009769F714C06BA17CA18DA19EA150
:100410000E943404DC01CB019AA389A389A19AA18B
:100420009E8F8D8F8D8D9E8D0197F1F79E8F8D8F75
:10043000E3E2F0E08081882F90E081709070009777
:1004400009F086C0A8E2B0E0E8E2F0E080818061D7
:100450008C938EE591E068EE73E00E94990080E055
:1004600090E0AAEFB3E4898F9A8FAB8FBC8F698D30
:100470007A8D8B8D9C8D20E030E04AE755E40E9418
:100480000A06DC01CB018D8B9E8BAF8BB88F6D89FB
:100490007E898F89988D20E030E040E85FE30E94FC
:1004A000100888232CF481E090E09C8B8B8B3FC05C
:1004B0006D897E898F89988D20E03FEF4FE757E463
:1004C0000E94B00718164CF5698D7A8D8B8D9C8D26
:1004D00020E030E040E251E40E940A06DC01CB015A
:1004E000BC01CD010E943404DC01CB019C8B8B8BC1
:1004F0000FC080E991E09A8B898B89899A8901974D
:10050000F1F79A8B898B8B899C8901979C8B8B8BBC
:100510008B899C89009769F714C06D897E898F89C2
:10052000988D0E943404DC01CB019C8B8B8B8B89D2
:100530009C89988B8F878F8598890197F1F7988B85
:100540008F87A8E2B0E0E8E2F0E080818F7E8C93B4
:10055000E3E2F0E08081882F90E082709070009755
:1005600009F086C0A8E2B0E0E8E2F0E080818061B6
:100570008C938EE591E068EE73E00E94990080E034
:1005800090E0AAEFB3E48B879C87AD87BE876B852D
:100590007C858D859E8520E030E04AE755E40E9409
:1005A0000A06DC01CB018F839887A987BA876F8100
:1005B000788589859A8520E030E040E85FE30E94F5
:1005C000100888232CF481E090E09E838D833FC047
:1005D0006F81788589859A8520E03FEF4FE757E462
:1005E0000E94B00718164CF56B857C858D859E851D
:1005F00020E030E040E251E40E940A06DC01CB0139
:10060000BC01CD010E943404DC01CB019E838D83AB
:100610000FC080E991E09C838B838B819C81019743
:10062000F1F79C838B838D819E8101979E838D83BF
:100630008D819E81009769F714C06F8178858985C7
:100640009A850E943404DC01CB019E838D838D81C9
:100650009E819A83898389819A810197F1F79A8390
:100660008983A8E2B0E0E8E2F0E080818F7E8C939D
:10067000AA96DEBFCDBFCF91DF91FF91EF91BF91E1
:10068000AF919F918F917F916F915F914F913F912A
:100690002F910F900FBE0F901F901895DF93CF935F
:1006A000CDB7DEB76A970FB6F894DEBF0FBECDBFE9
:1006B000ABE2B0E0EBE2F0E0808180688C9380E018
:1006C00090E0A0E2B1E48D8B9E8BAF8BB88F6D89EB
:1006D0007E898F89988D2BEA3AEA4AEA50E40E9493
:1006E0000A06DC01CB01898B9A8BAB8BBC8B6989A9
:1006F0007A898B899C8920E030E040E85FE30E94A2
:10070000100888231CF481E0888B91C069897A895C
:100710008B899C8920E030E04FE753E40E94B007CA
:1007200018160CF07BC06D897E898F89988D20E02A
:1007300030E04AE754E40E940407DC01CB018C87D7
:100740009D87AE87BF876C857D858E859F8520E0E0
:1007500030E04AE755E40E940A06DC01CB018887B5
:100760009987AA87BB87688579858A859B8520E0DC
:1007700030E040E85FE30E94100888232CF481E019
:1007800090E09F838E833FC0688579858A859B85AD
:1007900020E03FEF4FE757E40E94B00718164CF5F2
:1007A0006C857D858E859F8520E030E040E251E4B8
:1007B0000E940A06DC01CB01BC01CD010E94340479
:1007C000DC01CB019F838E830FC080E991E09D8384
:1007D0008C838C819D810197F1F79D838C838E8121
:1007E0009F8101979F838E838E819F81009769F7F8
:1007F00024C0688579858A859B850E943404DC0144
:10080000CB019F838E838E819F819B838A838A8184
:100810009B810197F1F79B838A830FC069897A894D
:100820008B899C890E943404DC01CB01888B8889E8
:10083000898389818A95F1F78983ABE2B0E0EBE2A5
:10084000F0E080818F778C936A960FB6F894DEBFC4
:100850000FBECDBFCF91DF910895DF93CF93CDB77A
:10086000DEB70E944B00FFCFEF92FF920F931F93D2
:100870007B018C0120E030E040E05FE40E94E00773
:1008800088238CF0C801B70120E030E040E05FE44D
:100890000E94AC050E949E089B01AC012050304094
:1008A0004040504806C0C801B7010E949E089B0105
:1008B000AC01B901CA011F910F91FF90EF9008950B
:1008C000A0E0B0E0E6E6F4E00C94E70ADC012B01DE
:1008D000FA019C91923008F439C1EB018881823091
:1008E00008F433C1943069F4843009F02FC11196B3
:1008F0009C9111978981981709F428C1A0E0B1E073
:1009000025C1843009F421C18230A9F4923009F064
:100910001DC19A01AD0188E0EA010990AE01E9012B
:1009200009929E018150C1F7E201898111969C9143
:100930008923818308C1923009F407C112962D9052
:100940003C901397EB018A819B811496AD90BD90EA
:10095000CD90DC901797EC80FD800E811F81910176
:10096000281B390BB90137FF04C066277727621BA4
:10097000730B603271050CF061C0121613066CF532
:1009800037014801062E04C09694879477946794A3
:100990000A94D2F721E030E040E050E004C0220F9A
:1009A000331F441F551F6A95D2F7215030404040F5
:1009B00050402E213F21402351232115310541056F
:1009C000510521F021E030E040E050E079018A015A
:1009D000E628F728082919293CC0232BD1F1260E37
:1009E000371E35014601062E04C0969487947794ED
:1009F00067940A94D2F721E030E040E050E004C070
:100A0000220F331F441F551F6A95D2F721503040E3
:100A1000404050402A213B214C215D2121153105C8
:100A20004105510521F021E030E040E050E059015E
:100A30006A01A628B728C828D9280BC082159305B3
:100A40002CF01C01AA24BB24650103C0EE24FF2462
:100A5000870111969C91D20111968C91981709F4F7
:100A600045C0992339F0A80197012A193B094C097F
:100A70005D0906C0A60195012E193F09400B510BD7
:100A800057FD08C011823382228224833583468336
:100A900057831DC081E08183338222828827992772
:100AA000DC01821B930BA40BB50B84839583A68377
:100AB000B7830DC0220F331F441F551F2483358376
:100AC0004683578382819381019793838283248114
:100AD000358146815781DA01C9010197A109B10920
:100AE0008F5F9F4FAF4FBF4328F30BC0918333827B
:100AF0002282EA0CFB1C0C1D1D1DE482F58206837C
:100B0000178383E08083248135814681578157FF95
:100B10001AC0C901AA2797FDA095BA2F81709070BD
:100B2000A070B0705695479537952795822B932BDB
:100B3000A42BB52B84839583A683B783828193816D
:100B4000019693838283DF0101C0D201CD01CDB72D
:100B5000DEB7E2E10C94030BA0E2B0E0E2EBF5E0DB
:100B60000C94F30A69837A838B839C832D833E8361
:100B70004F835887E9E0EE2EF12CEC0EFD1ECE01DE
:100B80000196B7010E94160A8E010F5E1F4FCE011B
:100B90000596B8010E94160A8A8991E089278A8BF6
:100BA000C701B801AE01475E5F4F0E9460040E941A
:100BB0004109A096E6E00C940F0BA0E2B0E0E3EE52
:100BC000F5E00C94F30A69837A838B839C832D83ED
:100BD0003E834F835887F9E0EF2EF12CEC0EFD1E7B
:100BE000CE010196B7010E94160A8E010F5E1F4FBB
:100BF000CE010596B8010E94160AC701B801AE01E0
:100C0000475E5F4F0E9460040E944109A096E6E0A3
:100C10000C940F0BA0E2B0E0E0E1F6E00C94E70AE0
:100C200069837A838B839C832D833E834F8358878C
:100C3000CE010196BE01675F7F4F0E94160ACE016A
:100C40000596BE016F5E7F4F0E94160A998592300D
:100C500088F089898230C8F0943019F4823051F4D8
:100C600004C0843029F4923081F480E091E0C6C061
:100C7000923049F420E09A858A89981321E02A87E6
:100C8000CE010996BBC0823049F420E09A858A895A
:100C9000981321E02A8BCE014196B0C02D843E846A
:100CA0004F8458886D887E888F88988CEE24FF2426
:100CB0008701AA24BB24650140E050E060E070E0B9
:100CC000E0E0F0E0C10181709070892BE9F0E60C62
:100CD000F71C081D191D9A01AB012A0D3B1D4C1D67
:100CE0005D1D80E090E0A0E0B0E0E614F7040805A8
:100CF000190520F481E090E0A0E0B0E0BA01A9017C
:100D0000480F591F6A1F7B1FAA0CBB1CCC1CDD1C83
:100D100097FE08C081E090E0A0E0B0E0A82AB92AE0
:100D2000CA2ADB2A3196E032F10549F0660C771CBD
:100D3000881C991C5694479437942794C3CFFA85FE
:100D4000EA892B893C898B859C85280F391F2E5F6A
:100D50003F4F17C0CA0181709070892B61F01695C2
:100D60000795F794E79480E090E0A0E0B0E8E82AE7
:100D7000F92A0A2B1B2B76956795579547952F5F78
:100D80003F4F77FDE7CF0CC0440F551F661F771FFD
:100D900017FD4160EE0CFF1C001F111F2150304059
:100DA000403090E0590790E0690790E4790760F3DC
:100DB0002B8F3C8FDB01CA018F779070A070B070D1
:100DC00080349105A105B10561F447FD0AC0E11425
:100DD000F1040105110529F0405C5F4F6F4F7F4F13
:100DE00040781A8EFE1711F081E08A8F4D8F5E8F4A
:100DF0006F8F78A383E0898FCE0149960E944109C5
:100E0000A096E2E10C94030BA8E1B0E0EAE0F7E081
:100E10000C94EF0A69837A838B839C832D833E83B2
:100E20004F835887B9E0EB2EF12CEC0EFD1ECE015E
:100E30000196B7010E94160A8E010F5E1F4FCE0168
:100E40000596B8010E94160A2985223008F47EC052
:100E50003989323010F4B8017CC08A859A89892793
:100E60008A87243011F0223031F4231709F06EC044
:100E700060E071E06EC0343039F41D861E861F8636
:100E8000188A1C861B8604C0323021F484E08987CE
:100E9000B7015FC02B853C858B899C89281B390B4A
:100EA0003C872B87ED84FE840F851889AD88BE882A
:100EB000CF88D88CEA14FB040C051D0540F4EE0C19
:100EC000FF1C001F111F215030403C872B8720E062
:100ED00030E040E050E080E090E0A0E0B0E460E08E
:100EE00070E0EA14FB040C051D0540F0282B392B9B
:100EF0004A2B5B2BEA18FB080C091D09B695A79530
:100F000097958795EE0CFF1C001F111F6F5F7F4F99
:100F10006F31710531F7DA01C9018F779070A070D8
:100F2000B07080349105A105B10561F427FD0AC0B8
:100F3000E114F1040105110529F0205C3F4F4F4FEA
:100F40005F4F20782D873E874F87588BBE01675FA4
:100F50007F4FCB010E9441096896EAE00C940B0B8D
:100F6000A8E1B0E0E6EBF7E00C94F30A69837A833A
:100F70008B839C832D833E834F83588789E0E82EA3
:100F8000F12CEC0EFD1ECE010196B7010E94160A4F
:100F90008E010F5E1F4FCE010596B8010E94160A02
:100FA0008985823040F08989823028F0C701B801F4
:100FB0000E948E0A01C08FEF6896E6E00C940F0B3A
:100FC000A8E1B0E0E6EEF7E00C94F30A69837A83D7
:100FD0008B839C832D833E834F83588789E0E82E43
:100FE000F12CEC0EFD1ECE010196B7010E94160AEF
:100FF0008E010F5E1F4FCE010596B8010E94160AA2
:101000008985823040F08989823028F0C701B80193
:101010000E948E0A01C08FEF6896E6E00C940F0BD9
:10102000A8E1B0E0E6E1F8E00C94F30A69837A8382
:101030008B839C832D833E834F83588789E0E82EE2
:10104000F12CEC0EFD1ECE010196B7010E94160A8E
:101050008E010F5E1F4FCE010596B8010E94160A41
:101060008985823040F08989823028F0C701B80133
:101070000E948E0A01C081E06896E6E00C940F0B96
:10108000A8E0B0E0E6E4F8E00C94F00A9B01AC01C3
:1010900083E08983DA01C9018827B7FD8395992701
:1010A000AA27BB27B82E211531054105510519F492
:1010B00082E089833AC08823A9F0203080E0380795
:1010C00080E0480780E8580729F460E070E080E09D
:1010D0009FEC30C0EE24FF248701E21AF30A040BD0
:1010E000150B02C079018A018EE1C82ED12CDC8259
:1010F000CB82ED82FE820F831887C801B7010E9460
:10110000F20801971816190684F4082E04C0EE0C94
:10111000FF1C001F111F0A94D2F7ED82FE820F837D
:101120001887C81AD90ADC82CB82BA82CE0101960E
:101130000E9441092896E9E00C940C0BACE0B0E069
:10114000E4EAF8E00C94F70A69837A838B839C8342
:10115000CE010196BE016B5F7F4F0E94160A8D8102
:10116000823061F1823050F1843021F48E81882305
:1011700051F12EC02F81388537FD20C06E812F316F
:1011800031051CF06623F9F023C08EE190E0821B4C
:10119000930B29853A854B855C8504C05695479508
:1011A000379527958A95D2F76623B1F050954095EB
:1011B000309521953F4F4F4F5F4F0EC020E030E0FC
:1011C00040E050E009C02FEF3FEF4FEF5FE704C072
:1011D00020E030E040E050E8B901CA012C96E2E09E
:1011E0000C94130BEF92FF920F931F937B018C01D2
:1011F00080E0E81680E0F80681E0080780E0180744
:1012000088F48FEFE816F1040105110531F028F09C
:1012100088E090E0A0E0B0E017C080E090E0A0E0BF
:10122000B0E012C080E0E81680E0F80680E0080731
:1012300081E0180728F088E190E0A0E0B0E004C069
:1012400080E190E0A0E0B0E020E230E040E050E05B
:10125000281B390B4A0B5B0B04C016950795F794B6
:10126000E7948A95D2F7F701E85FFE4F8081281B4B
:10127000310941095109C9011F910F91FF90EF9068
:101280000895DF92EF92FF920F931F93FC01E48089
:10129000F58006811781D1808081823048F480E01A
:1012A00090E0A0E1B0E0E82AF92A0A2B1B2BA5C0A8
:1012B000843009F49FC0823021F4EE24FF2487019A
:1012C00005C0E114F1040105110519F4E0E0F0E0B6
:1012D00096C0628173819FEF623879070CF05BC022
:1012E00022E83FEF261B370B2A3131052CF020E096
:1012F00030E040E050E02AC0B801A701022E04C04F
:1013000076956795579547950A94D2F781E090E0D6
:10131000A0E0B0E004C0880F991FAA1FBB1F2A9548
:10132000D2F70197A109B1098E219F21A023B123F2
:101330000097A105B10521F081E090E0A0E0B0E0C8
:101340009A01AB01282B392B4A2B5B2BDA01C901FF
:101350008F779070A070B07080349105A105B105B1
:1013600039F427FF09C0205C3F4F4F4F5F4F04C047
:10137000215C3F4F4F4F5F4FE0E0F0E02030A0E0B6
:101380003A07A0E04A07A0E45A0710F0E1E0F0E0D5
:1013900079018A0127C06038710564F5FB01E158C5
:1013A000FF4FD801C7018F779070A070B070803464
:1013B0009105A105B10539F4E7FE0DC080E490E088
:1013C000A0E0B0E004C08FE390E0A0E0B0E0E80E61
:1013D000F91E0A1F1B1F17FF05C016950795F794E6
:1013E000E794319687E016950795F794E7948A95E8
:1013F000D1F705C0EE24FF248701EFEFF0E06E2F58
:10140000679566276795902F9F77D794DD24D794AB
:101410008E2F8695492F462B582F5D29B701CA017B
:101420001F910F91FF90EF90DF900895FC01DB0179
:10143000408151812281622F6F7770E0221F222725
:10144000221F9381892F880F822B282F30E0991F2C
:101450009927991F11969C93119721153105A9F58C
:10146000411551056105710511F482E037C082E82C
:101470009FEF13969C938E9312979A01AB0167E0AE
:10148000220F331F441F551F6A95D1F783E08C93B9
:101490000DC0220F331F441F551F12968D919C9132
:1014A0001397019713969C938E931297203080E0A8
:1014B000380780E0480780E4580758F314962D93C6
:1014C0003D934D935C93179708952F3F310579F421
:1014D000411551056105710519F484E08C93089557
:1014E00064FF03C081E08C9312C01C9210C02F5780
:1014F000304013963C932E93129783E08C9387E0B1
:10150000440F551F661F771F8A95D1F77064149694
:101510004D935D936D937C93179708951F93DC0112
:10152000FB019C91923008F447C08081823008F41E
:1015300043C0943051F411961C91843099F5818107
:10154000682F70E0611B71093FC0843021F0923038
:1015500031F48230B9F18181882389F12DC011964F
:101560001C9111978230F1F081811817D9F41296ED
:101570002D913C911397828193818217930794F068
:1015800028173907BCF014968D919D910D90BC9150
:10159000A02D2481358146815781281739074A07B4
:1015A0005B0718F4112341F00AC082179307A407C0
:1015B000B50740F4112319F061E070E005C06FEF4A
:1015C0007FEF02C060E070E0CB011F9108952F9281
:1015D0003F924F925F926F927F928F929F92AF92C3
:1015E000BF92CF92DF92EF92FF920F931F93CF9310
:1015F000DF93CDB7DEB7CA1BDB0B0FB6F894DEBFA7
:101600000FBECDBF09942A88398848885F846E84CC
:101610007D848C849B84AA84B984C884DF80EE8016
:10162000FD800C811B81AA81B981CE0FD11D0FB61F
:10163000F894DEBF0FBECDBFED010895F894FFCF43
:101640000000000000000000000102020303030389
:101650000404040404040404050505050505050542
:101660000505050505050505060606060606060622
:10167000060606060606060606060606060606060A
:1016800006060606060606060707070707070707F2
:1016900007070707070707070707070707070707DA
:1016A00007070707070707070707070707070707CA
:1016B00007070707070707070707070707070707BA
:1016C00007070707070707070808080808080808A2
:1016D000080808080808080808080808080808088A
:1016E000080808080808080808080808080808087A
:1016F000080808080808080808080808080808086A
:101700000808080808080808080808080808080859
:101710000808080808080808080808080808080849
:101720000808080808080808080808080808080839
:101730000808080808080808080808080808080829
:08174000080808080808080861
:00000001FF
